@ba98 ; Affinity 
@bb01 ; MemBank 
@bc03 ; Command 
:020000020C00F0
:1000000020C1089581E084C082E082C083E080C086
:10001000D9D0DCC085E07CC086E07AC087E078C0BB
:1000200088E076C089E074C08AE072C08BE070C05E
:1000300072C000007FC000008EE06AC08FE068C020
:1000400080E166C081E164C082E162C083E160C09A
:1000500084E15EC085E15CC086E15AC087E158C09A
:10006000B7C0000089E154C08AE152C08BE150C0A2
:100070008CE14EC08DE14CC08EE14AC08FE148C09A
:1000800080E246C081E244C082E242C0D4C00000A7
:1000900084E23EC085E23CC086E23AC087E238C0D6
:1000A00088E236C089E234C08AE232C08BE230C0D6
:1000B0008CE22EC08DE22CC08EE22AC08FE228C0D6
:1000C00080E326C081E324C082E322C083E320C012
:1000D00084E31EC085E31CC086E31AC087E318C012
:1000E00088E316C089E314C08AE312C08BE310C012
:1000F0008CE30EC08DE30CC08EE30AC08FE308C012
:1001000001008FD9020100001F5F9869610C1CBBC0
:10011000E82F0C9418123F01F50101910093220879
:10012000AE2E02E00093060BF301A7FE1895209275
:10013000050B1895E89B06C0E89820921301C09221
:1001400042081895FF93EF93EFB7EF93DF93CF93A8
:10015000BF93AF93E0911C0BF0911D0BA091006930
:10016000B0910169E0930069F0930169EA1BE093A3
:100170000269FB0BF09303696894B2E0E037FB0778
:1001800008F4ED9AB3E0EC30FB0730F0E894B4E00B
:10019000E833FB0708F4ED9AF091140BE0E1A0912D
:1001A0001B69EE9BFE27EE98E3E0A211E5E0E093E9
:1001B0004102F093140BEFEFE093160BE09104690A
:1001C000FFE1099401E00093530118950C94562B1C
:1001D0003F01E091D369F091D46900911006019339
:1001E000009111060083E091D569F091D6690191E3
:1001F00000930C06019100930806019100930906F3
:100200000191009300060191009301060191009372
:10021000A00001910093D36901910093D4690191E9
:1002200000930B06019100930A06E093D569F093C1
:10023000D669F30118950FB72092031021600FBF04
:100240001895A895F89422242DBAE8EDE4BFE5E8C6
:10025000E0930110E2E8FCE6EDBFFEBFE0E0F9E666
:10026000C0EADBE021922197E9F720920508A1E49A
:10027000A0931202AEE4A0931402A3E0A093410263
:100280006F98679A4F98479AA8E0A093B204A093FA
:10029000B304A29AA39AA0E0A093E605A1E0A093DC
:1002A000030AA1E0A093000AA0E8A09357044F9886
:1002B000479AE0E0FBE02082A7E0A1832582A0E846
:1002C000A487A0E0A587A3E0A083E0E1FBE0208273
:1002D000A2E0A183A1E4A483A1E0A683A583A3E077
:1002E000A083A0915101A0FDFCCFA9E1A0935001F2
:1002F000A1E0A0935301A0935201A4E0A09357045E
:100300004798E0E0F6E0A1E1A083A0E0A183ABE0A4
:10031000A283A0E0A383A0E0A483A2E0A0930506AB
:10032000A2E4A087A2E4A1870E94292DE8EDE4BF02
:10033000E9E0E0930001E1E0E09350000E947F1BC0
:100340000E94E61E0E941E2D0E941E2D0E94F9276B
:100350000E945B285ED216D69BD40E943E2A0E9441
:10036000CC2A0E9489210E949C260E94D5260E94A8
:1003700006270E941E2DE1E0E093506806D1EFEFC2
:10038000E093060BE093160BE0935301E093041007
:100390000C94E52AE4E5FCE60C94AB2C0895E6EE1B
:1003A000FAED80911A6A84FF0C9435130895EEEFEC
:1003B000FAED0C943513E0E0909151689F7709F0C5
:1003C000E260F0911B69F0FDE460809130709091E3
:1003D000516882FD909597FFE160FFE10E947D24C6
:1003E000F0E0E0FDF160F093126C0895EE270895BF
:1003F000189408950895F894C0D0F894D0D00C942F
:10040000E313F894B0D0C1D00C94E3130E942D2DC7
:10041000F894A895FFCF0C94E513E770F0E0EA5D3F
:10042000FB45E08108950102040810204080ECE3C0
:10043000F894A2E8BCE6ADBFBEBF0E94452DA895CA
:10044000FECF019009928A95E1F7089501901990E5
:10045000011411F48A95D1F7089529928A95E9F744
:100460000895208221822282238208959FEF99930A
:100470008A95E9F70895E0E0FFE80990E025E0813A
:100480008A95D9F7EE230895799FE001689FD001FE
:10049000699FB00DC11DD21D789FB00DC11DD21D29
:1004A000089580E406C080E204C080E102C088E0D4
:1004B00000C0C083D1838283238224822582CDCF52
:1004C00011D00BC00FD007C00DD003C00BD0AA0FA6
:1004D000BB1FAA0FBB1FAA0FBB1FAA0FBB1FAA0FD0
:1004E000BB1F0895B381A081AB0FB181B21DDC9118
:1004F000CC93A481B581AD1BB209AC0FB21DA4830E
:10050000B583C281D381D395DC1708F0DD27D3836F
:1005100008951FD005FE0EC001800DC01AD006FE42
:1005200009C001800AC015D007FE04C0018007C0C1
:1005300010D039F00895000C111C000C111C000C97
:10054000111C10820FB6F8942182228223820FBEE2
:1005500008951180100C11821280121C12820380E7
:10056000039403820895C0E0D8E6AAE1B0E01FC07A
:10057000C0E0D8E6AEE1B0E027C0C0E0D8E680E455
:100580006CDFEFEFE0931F680895C0E4D8E6AAE3BC
:10059000B0E00DC0C0E4D8E6AEE3B0E015C0C0E402
:1005A000D8E680E85ADFEFEFE0937F6808950E9475
:1005B000A513F001A095B095C095D095A083B18307
:1005C000C283D383248208950E94A513F0018083FF
:1005D0000895E0913B70E53008F0E2E0F0E0EE5085
:1005E000FD4E099426C023C00AC006C000C08091F9
:1005F0008868209288681FC08091016C1CC090910F
:100600009068923021F0943031F00FD023C00DD09B
:100610001BD00BD01CC009D014D007D012D005D0ED
:1006200016C00C94E02C0C94E52C01D0FCCFF9DF23
:1006300005C0F9DF03C08211FACFFBCF82E390E05F
:100640000CC084E690E009C088EC90E006C088EE1B
:1006500093E003C082EE94E000C00C94762CE0910D
:10066000D369F091D469EF2B0895CF93C091D369EA
:10067000C21106C0C091D469C21102C0CF9103C09B
:10068000CF9188940895CF93C2E0C0930A06C1E049
:10069000C0930D06C191C0930006C191C09302069C
:1006A000C191C0930306C191C0930406C191C09348
:1006B0000C06C191C0930806C191C0930906C1916F
:1006C000C0930006C191C0930106C191C093A000E0
:1006D000C191C093D369C191C093D469C191C093B2
:1006E0000B06C191C0930A06E093D569F093D669D1
:1006F000CF91089408957695679576956795769548
:100700006795769567958091061190910711861BE4
:10071000970B6091041170910511B6DEC695B795DF
:10072000C695B795C695B795C695B7957C2F6B2F8F
:1007300008950C9410000C9411000C9412000C9469
:1007400013000C9414000C9415000C9416000C94D7
:1007500017000C9418000C9419000C941A000C94B7
:100760001B000C941C000C941D000C941E000C9497
:100770001F000C9420000C9421000C9422000C9477
:1007800023000C9424000C9425000C9426000C9457
:1007900027000C9428000C9429000C942A000C9437
:1007A0002B000C942C000C942D000C942E000C9417
:1007B0002F000C9430000C9431000C9432000C94F7
:1007C00033000C9434000C9435000C9436000C94D7
:1007D00037000C9438000C9439000C943A000C94B7
:1007E0003B000C943C000C943D000C943E000C9497
:1007F0003F000C9440000C9441000C9442000C9477
:1008000043000C9444000C9445000C9446000C9456
:100810004700DBD5EFE7E093066CECE3FCE6C0E6CF
:10082000D3E741DEE2E4FCE6C0E8D3E73CCE8091CA
:1008300052680895E0911D6920921D69E0931C693A
:10084000E0911F6920921F69E0931E690895F89452
:10085000E0917D6920927D697894E03009F40895F3
:10086000EF3208F0C7CDC0917B69D9E6E45CF0E0D7
:10087000FB4E09950C946B14BDCDE1C00AC10EC1AD
:10088000B9CDB8CDB7CDB6CDB5CDB4CD32C146C159
:1008900064C172C185C198C1ABC1BEC1D1C1E4C13F
:1008A000ACC0A8CDA7CDA6CDA5CDA4CDA3CDA2CDBE
:1008B000A1CDA0CD9FCD9ECD9DCDAFC09BCD9ACDDE
:1008C00099CD98CDA9C0EFC1EEC1EDC1ECC1EBC18E
:1008D000E9C103C2E9C1A895F89460912F6C7091A9
:1008E000306C789408DFEB01CF5DD040EEE0FCE6A1
:1008F0000C2E0FDE6894E0911B69F0913070EF27A9
:10090000E0FDE894D091256CC091266CC7FF05C02E
:10091000C095D195CF4FC7FDCFE7DD0FCC1FECE3DE
:10092000FCE6D0DD16F0B093346C16F4B093356C61
:10093000D091276CC091286CC7FF05C0C095D19598
:10094000CF4FC7FDCFE7DD0FCC1FE2E4FCE6BADDF9
:1009500016F4B093346C16F0B093356CA091346CEF
:10096000AB0FA795A0932069A25308F4A0E0A09331
:10097000136CA091346CB091356CAB1BA058E6E0C1
:10098000FCE60A2EC6DDC0E0EAE0FCE60C2EC1DD86
:10099000E091A269F091A469EF1708F4EF2FE093BA
:1009A000A569E0E0E093A66980E0A0913470A0938F
:1009B000A306B0ECAB9FB0910A6CB11508F0816052
:1009C000A0913570B0910E6CB25308F4B0E0BA1734
:1009D00008F08460A0913670B0912069BA1708F0D1
:1009E00088600E94932409F082608093016C90914A
:1009F0001A70982B90931A70089520925168E2E52E
:100A0000F8E6219221922192219221922192219223
:100A100021922192BADD3CC10895E0917E69E330D4
:100A200019F099818A8103C090E089818F77EFB7AF
:100A3000F89480934C6990934D69EFBF0895E881D5
:100A4000E4FBEE0FE0F9E6FBEF71E43010F4E6951D
:100A50000DC0E450F0E08091197084FDE35C84FDEA
:100A6000FF4884FFEA5884FFF545E081E7F992D119
:100A7000EF138BDD0FC103070C1015191E22272B56
:100A80003034393D42464B4F54585D61666A6F734E
:100A9000787EE9817FD1EF1378DDFCC0E9817AD1DE
:100AA000FE27F0E08A8190915268809352688927EE
:100AB000F82BE0917E69E530C8F08B819091536806
:100AC000809353688927F82BE63080F08C819091D1
:100AD0005468809354688927F82BE73038F08D816B
:100AE00090915568809355688927F82BF2114DDD58
:100AF000CFC0FF27E0914E6980914F698695EE1F28
:100B0000E095EF71888184FB880F80F9909152689D
:100B10003AD180935268F21138DDBEC0FF27888138
:100B20008295880F90915268E0914E69EE0FE095A2
:100B3000E07E29D1809352688881880F82959091B8
:100B40005368E0914E69EE0FEE1FE095E1701BD106
:100B500080935368F21119DD9FC0FF278881880FA9
:100B600090915368E0914F69E095EE710CD18093BC
:100B70005368F2110ADD90C0FF27E0914F69E5FD4F
:100B80000895898190915368F5D080935368898145
:100B900090915468F3D080935468F211F6DC7CC0D5
:100BA000FF27E0914F69E5FD089589819091546890
:100BB000E1D080935468898190915568DFD080930B
:100BC0005568F211E2DC68C0FF27E0914F69E6FD4D
:100BD0000895898190915568CDD080935568898119
:100BE00090915668CBD080935668F211CEDC54C0F9
:100BF000FF27E0914F69E6FD08958981909156683D
:100C0000B9D080935668898190915768B7D0809306
:100C10005768F211BADC40C0FF27E0914F69E6FD4A
:100C20000895898190915768A5D0809357688981EC
:100C300090915868A3D080935868F211A6DC2CC01C
:100C4000FF27E0914F69E6FD0895898190915868EA
:100C500091D0809358688981909159688FD0809302
:100C60005968F21192DC18C0FF27E0914F69E6FD48
:100C700008958981909159687DD0809359688981C0
:100C800090915A687BD080935A68F2117EDC04C040
:100C900001D002C0AFDBAEC380915268809153682F
:100CA000A9DBA8C372CC0895A1DBB1F42ED021F446
:100CB00082E00E949D28A1CB80917E69853038F02A
:100CC0002196E0E2F8E683E0C1DB31F096CBF981D2
:100CD000E0912268FE1391CB0895E881E93008F095
:100CE0000895F0E0EB58F94E099408C008C008C018
:100CF00008C00895089508950895089508957BCB38
:100D00007ACBE1E0E093506840CCF0914C68E09100
:100D10004D68EF2B0895E23060F10090057010905F
:100D200001700118039400928E6800900470109076
:100D300005700118039400928F68FE2FE03408F0CC
:100D4000FFE300908E680F9E000C111CF091017063
:100D5000F695F10DE03438F0EF5300908F680E9E59
:100D6000000C111CF10DEF2FE7FDEFE7E23008F466
:100D7000E2E008958295880FE0EE05C0869586959D
:100D80008695EFE100C08E23E095E9238E2B98270E
:100D9000F92B0895FE2F8091506982110895F091EA
:100DA0000F70F078EC99EF2780911970F0E880FDD2
:100DB000EF2780912268F0911B69F07887FDEF277B
:100DC000E7FBEF77A8DFE7F9F0915168E09351680E
:100DD0000895519B05C0EEE9FAED47CC5199FBCF40
:100DE000E6EBFAED42CCA881A3700E94B229B9814A
:100DF000CF93DF930E944E29DF91CF91689409F43D
:100E0000E89440F5F881EA81FC7039F0F43031F073
:100E1000FC3041F0E4FF14C00CC01CC0DEF0AE1783
:100E2000C1F018C0AE2F0E945329A1F498F421609C
:100E300010C0AE2F0E94572969F460F4216009C0E8
:100E40004EF0E3FBEADAAE230EF0EE27EA2709F0D4
:100E500001C0A0CA0895A881A3700E94B229B981D7
:100E60000E944E2921F408F00EC3EA2F0FC300C3DD
:100E7000AA81B9810E94B329E881E370E093206CD4
:100E8000BB810E944E29B9F4A093216CB3950E94B6
:100E90004E2989F4A093226CB3950E944E2959F4EF
:100EA000A093236CB3950E944E2929F4A093246C3F
:100EB000C0E2DCE6EDC2DCC2E89402C0689400C087
:100EC00089F40E94FE27E53068F0A881A3700E9493
:100ED000B229B981AA810E94522929F418F421600B
:100EE000EA2FD4C2D0C2C4C2B9F50E94FE27E131B4
:100EF00098F1B981AA810E94B329E0E2FCE6A881B9
:100F0000A370A083AC81A183BD81B283BE81B38372
:100F1000BF81B483BB810E945329F9F4A093216C53
:100F2000B395A091226C0E945329B9F4A093226C2E
:100F3000B395A091236C0E94532979F4A093236C5C
:100F4000B395A091246C0E94532939F4A093246C8A
:100F50002160C0E2DCE69CC296C28AC20E940B28D5
:100F600078F0A0E00E94B229BCE10E944E2949F429
:100F7000E881E0FBA5F90E94532919F421609DC284
:100F800082C276C2E0EFE09382690E949913E093F7
:100F900083690E94A913D0938469C0938569B09333
:100FA0008669A0938769CEE8D9E6E0E8E88385E022
:100FB0000E943B12E883C8E8D9E6E0EDE883E0E070
:100FC000E983E0E0EA832B822C8285E00E943B12D9
:100FD000E88322D000C0F7E0E0910A0BEF230DC0B8
:100FE000E0919869F0919969EA953AF4FF0FF760FA
:100FF000FF77E0910A0BEF2300C0E0939869F0932C
:1010000099690895F0914C68E0914D68EF2B08952F
:10101000E0919769EE230895209297690895F091E1
:101020009669E0939669FE1B08F4F195F53008F097
:10103000F3CF0895CF93DF93E2E8F9E6A991AF707B
:10104000B191BF70AB1731F4A991B191AB1711F405
:10105000E838D1F7DF91CF9108958F93ECE6F9E668
:10106000A0917E698A2F8C0FB081A193BA17A081BD
:10107000B991BA07B1938C13FACFC0917B698F9164
:101080000895E2E013C0E3E011C0E4E00FC0E5E042
:101090000DC0E6E00BC0EAE009C0E3E0F4E007C001
:1010A000E4E0F7E004C0E6E0F9E001C0FE2FAE178F
:1010B00018F0FA1708F00895E0918C68F0918D68A7
:1010C0003196E0938C68F0938D68E0918468E395A5
:1010D000E0938468EF91EF9100C0E0E0AAC08ED168
:1010E000E5E2A7C0CEDFEFE1A4C0CBDFE6D1E1E0CF
:1010F000A0C0C9DFE2D1E6E29CC0C5DFDED1E2E0FC
:1011000098C0CEDFDAD1E3E094C0BFDFB9D1E4E02C
:1011100090C0C3DFAFD1E1E28CC0B3DFABD1E2E27C
:1011200088C0AFDFADD1E3E284C0B3DFE5E081C0CA
:10113000ACDFE6E07EC0ABDFE7E07BC0A4DFA0D1A0
:10114000E8E077C0A2DF9CD1E9E073C09ADFB5D1B7
:10115000EAE06FC096DFB1D1EBE06BC092DFADD1BA
:10116000ECE067C090DFA9D1EDE063C08CDFA5D1D2
:10117000EEE05FC088DFA1D1EFE05BC084DF9DD1EE
:10118000E0E157C080DF99D1E1E153C07CDF95D128
:10119000E2E14FC078DF91D1E3E14BC072DFE09133
:1011A0008069E395E211E0938069E4E144C069DF7E
:1011B00067D1E5E13EC071DF63D1E6E13AC0A4301A
:1011C00011F098F425C0E881E3FD05C0E2FF1DC0E1
:1011D00042DEE7E12EC0E2FF04C03FDF6DDEE8E162
:1011E00028C03BDF6BDEE9E124C0E881FE2FE3701D
:1011F000F3FD06C0F2FF09C04ADF3ADEEAE119C09A
:1012000052DF2BDF71DEEBE114C03AD1EDE111C00A
:1012100037D1E4E20EC0E0E20CC03FDFE09181692B
:10122000E395E211E0938169E23009F4DCDDECE161
:1012300004C02092806920928169E0937D69E091E9
:101240000A69E0937C692062089521DFEA81E7DE84
:10125000D9DE39F4DDDE29F4C3DE19F407D2E7E282
:10126000E8CF3BCF14DFEA81DADECCDE39F4D0DE22
:1012700029F4B6DE19F4FAD1E8E2DBCF2ECF07DF8E
:10128000EA81CDDE2ACF03DFEA81C9DEBBDE31F49D
:10129000BFDE21F4A0DEEAD1EAE2CBCF1ECF219758
:1012A000C9DE09F01CCFE1E0E0939769E7D1EBE2FA
:1012B000C0CFF1DE2197BEDE09F011CFFE81EF81B4
:1012C000F06CF0934B69E0934A69E1E0E093976931
:1012D000D1D1E4E0E0939068ECE2ABCFEEE2A9CFAD
:1012E000E0917E69E350EB30F8F4E0937E69F0E042
:1012F000E956F64E0995D1F4E0917E69A4E4B3EB8A
:10130000AE0FB21DBC91CB0FAE2FAB1BA0937E696D
:10131000C0937B69D9E6E881E93040F4F0E0E85514
:10132000F64E0995EDE285CFC7DED7CED8CE1FC0E9
:101330001CC01DC02DC019C025C02AC026C022C097
:1013400016C023C0000000020004020604000600CC
:1013500008C007C006C005C006C005C004C003C061
:1013600002C0A5D008958FD0089518940895989438
:101370000895E8E4F8E621C0ECE4F8E61EC0EEE4E7
:10138000F8E61BC0E0E4F8E610C0E4E4F8E605C0C7
:10139000F3DFD1F0EEDFC1F0F2CFA581BD81AB1755
:1013A00099F4A481BC81AB1779F4A381BB81AB17FD
:1013B00059F4A281BA81AB1739F4A181B981AB1775
:1013C00019F4A081B881AB17089500C0C2E5D9E631
:1013D00083E5899380E0ADE2B0E703D002D02882B4
:1013E00008959D91E8E08395969508F48993EA9590
:1013F000D1F70895E2E3E09391680895E09151698F
:10140000E395E33008F0E0E0E0935169F0E0E65F57
:10141000F54E099402C012C01BC0E0919168EA9594
:10142000E7FDE0939168E0911970E5FF05C0E09158
:101430000D70EF73E068E7C0E0E0E5C0E09119707F
:10144000E5FF03C0E0910E70E3C0E0910070E0C0E2
:10145000E0911870E3FFD2CFF091A869E0E0F2FDCF
:10146000E160F3FDE260F1FDE460F5FDE860D5C008
:10147000C5D0C4CFC3D0D6D0C1CFC0D0D5D0BECFB9
:10148000BDD0D4D0BBCFBAD0D3D0B8CFD5D0B6CFC3
:10149000E991DE01A6D0E85FE883ED91E983ED9163
:1014A000EA83ED91EB83ED91EC83CBD0A7CFE0E025
:1014B000F0E0A0E0B0E0E6D0EDC0E2E5F9E6E081E2
:1014C000A191C081C211CC13E3E5E0935269EFE62C
:1014D000FAE1EA0FF21D92D084D009958FCFA2C015
:1014E000B1C00EC00FC010C011C012C013C014C0D4
:1014F00015C016C017C018C019C018C017C016C034
:1015000017D027C062D069C058D05BC016D01AC0AF
:101510001DD05FC022D025C028D02BC02ED031C016
:1015200034D037C03AD03DC040D043C07BD07AC021
:10153000E0911A6CF0911B6C94C0E091036CE06830
:10154000F2E08FC0E0911C6CF2E08BC0E5E1F3E0CB
:1015500088C0E0918768F7E084C0E0910A6CF8E009
:1015600080C0E0910468F9E07CC0E0911F6AFAE075
:1015700078C0E0911B6AFBE074C0E0911C6CFCE059
:1015800070C0E0911D6CFDE06CC0E091066CFEE067
:1015900068C0E0911E69FFE064C0E0912C6CF0E14E
:1015A00060C0E0912A6CF1E15CC0E091246AF2E154
:1015B00058C0E091256AF3E154C0E091166CF8E15F
:1015C00050C0E091176CF9E14CC0E0910E6CFAE16B
:1015D00048C0E091126CFBE144C0E091136CFEE264
:1015E00040C0CAE2D9E60895A2E2B9E60895A4E2AD
:1015F000B9E60895A0912169B9E60895F8DFA093AE
:101600002169089547C0EDDFF1E0F883E98349C01F
:10161000E8DFF2E0F883E98344C0E3DFF3E0F88336
:10162000E9833FC0CFE041C0C0EF3FC0CCE33DC045
:10163000CFE03BD0CCE339C0D4DFE0DF2882E983C0
:101640003AC042C0C2E3D9E6E4E0E883A0E8B8E6E5
:10165000ED91EC83ED91EB83ED91EA83ED91E983DC
:1016600033C0E983FA83F7E0F8832AC0EF9AC2E82F
:10167000D9E634C0EF9AC8E8D9E630C0EF9ACEE890
:10168000D9E62CC0AEDFE883F983AA83BB83E0E10F
:10169000EC831FC0F0913769FF0F28F1FF0F18F19D
:1016A0002BC0A2DFE3E021D0A8C8A4DFE1E01DD079
:1016B000CD93A5CF9FDFE3E018D09FD8A0CF9ADFCE
:1016C000E7E013D098D89BCF92DFFFE315D08FD8F7
:1016D00096CF8DDFFFE310D08CD891CF85DFFFEF61
:1016E0000BD083D88CCFF0E007C0F091376902C0EF
:1016F000FF1FC8F3E695E0F3F09337690895089566
:10170000CCE0D9E6A0910B6920927D69E881E5578C
:10171000F0E0F44E0994FFC014C113C112C111C10D
:1017200010C10FC10EC10DC10CC10BC10AC109C14D
:1017300008C107C106C105C104C103C102C101C17D
:1017400000C1FFC0FEC0FDC0FCC0FBC0FAC0F9C0B4
:10175000F8C0F7C0F6C0F5C0F4C0F3C0F2C0F1C0E5
:10176000F0C0EFC0EEC0EDC0ECC0EBC0EAC0E9C015
:10177000E8C0E7C0E6C0E5C0E4C0E3C0E2C0E1C045
:10178000E0C0DFC0DEC0DDC0DCC0DBC0DAC0D9C075
:10179000D8C0D7C0D6C0D5C0D4C0D3C0D2C0D1C0A5
:1017A000D0C0CFC0CEC0CDC0CCC0CBC0CAC0C9C0D5
:1017B000C8C0C7C0C6C0C5C0C4C0C3C0C2C0C1C005
:1017C000C0C0BFC0BEC0BDC0BCC0BBC0BAC0B9C035
:1017D000B8C0B7C0B6C0B5C0B4C0B3C0B2C0B1C065
:1017E000B0C0AFC0AEC0ADC0ACC0ABC0AAC0A9C095
:1017F000A8C0A7C0A6C0A0C09FC09EC09DC09CC0DE
:101800009BC09AC099C098C097C096C095C094C01C
:1018100093C092C091C0B0C0AFC0AEC0ADC0ACC0AC
:10182000ABC0AAC0A9C0A8C0A7C0A6C0A5C0A4C07C
:10183000A3C0A2C0A1C0A0C09FC09EC09DC09CC0AC
:101840009BC09AC099C098C097C096C095C094C0DC
:1018500093C092C091C090C08FC08EC08DC08CC00C
:101860008BC08AC089C088C087C086C085C084C03C
:1018700083C082C081C080C07FC07EC07DC07CC06C
:101880007BC07AC079C078C077C076C075C074C09C
:1018900073C072C071C071C070C06FC06EC06DC0C7
:1018A0006CC06BC06AC069C068C067C066C065C0F4
:1018B00064C063C062C061C060C05FC05EC05DC024
:1018C0005CC05BC05AC059C058C057C056C055C054
:1018D00054C053C052C051C050C04FC04EC04DC084
:1018E0004CC04BC04AC01AC019C018C017C016C09F
:1018F00015C014C013C012C011C010C00FC00EC05C
:101900000DC00CC00BC00AC009C008C007C006C08B
:101910000DC009C00EC0A150219670C0A0937E6971
:10192000C0937B6975CCA15021962AC1A150219604
:1019300030C2A15021961CC1E0918069E33008F0CB
:101940006CCCEA9AE991A1506894F0914C69FE132D
:10195000E894B0914D69B211E894BF2BF0914A69B7
:10196000FE1739F4F0914B69F7FD03C0B21128C09E
:1019700045C00EF0B4CB32C04BCCEA9AE981F88175
:10198000A2502296E03021F4F03C11F4EB9A5CC0B6
:10199000B0914B69BF17B0914A69BE0741F4E0911D
:1019A0004C69F0914D69EF2BE2110AC027C0B0914C
:1019B0004D69BF17B0914C69BE0709F090CB0EC0BE
:1019C000E0911170EC67E0934E69E0911270E16074
:1019D000E0934F69E1E0E093506916C0EC9AE09122
:1019E0001170E095E378E0934E69E0911270E09514
:1019F000EE7FE0934F692092506906C020924E69B5
:101A000020924F6920925069A0937E69C0937B69B0
:101A1000E0911F69E395E0931F69E881E295EF701B
:101A2000EC5EF0E0F24E09942BC040C055C054C0AB
:101A30005CCB5BCB5ACB59CB89CB88CB8FCB8ACBBA
:101A400071C070C0BCCBB7CBA0937E69C0937B69DB
:101A5000EA98E881E295EF70E05DF0E0F24E0994DB
:101A60003CCB3BCB3ACB39CB38CB37CB36CB35CB5A
:101A700034CB33CB32CB31CB30CB2FCBA0CB9BCBAA
:101A8000E991EF70EA5BF0E0F24E099487CB8FCBDF
:101A9000C2CBC1CBBACBB9CBB8CBB7CBB6CBB5CB1E
:101AA00040CB3FCBB2CBB1CBB0CB37CBE991EF70D2
:101AB000E45AF0E0F24E0994A8CBA7CB2ACB29CB6D
:101AC000A4CBA3CBA2CBA1CBA0CB9FCB9ECB9DCBBA
:101AD0009CCB9BCB9ACB99CBE991EF71EE58F0E080
:101AE000F24E099492CB91CB90CB8FCB8ECB8DCBFA
:101AF0008CCB8BCB8ACB89CB88CB87CB86CB85CB4A
:101B000084CB83CB82CB81CB80CB7FCB7ECB7DCB79
:101B10007CCB7BCB7ACB79CB78CB77CBF2CAF5CAAF
:101B2000E8CAEBCAE991EF71E856F0E0F24E099489
:101B300009CBFBCAFDCAFFCA68CB67CB66CB65CBB6
:101B400064CB63CB62CB61CB60CB5FCB5ECB5DCB39
:101B50005CCB5BCB5ACB59CB58CB57CB56CB55CB69
:101B600009CB0CCB0FCB12CB15CBE8CAFBCAFECAF4
:101B7000A0937E69C0937B69E881E211AECAB2CAC4
:101B8000A0937E69C0937B69E991E753F0E0F24E40
:101B90000994A3CAA2CAA1CAA0CA9FCA9ECA9DCAC2
:101BA0009CCA9BCA9ACA99CA98CA97CA96CA95CA21
:101BB00094CA93CA92CA91CA90CA8FCA8ECA8DCA51
:101BC0008CCA8BCA8ACA89CA88CA87CA86CA85CA81
:101BD00084CA83CA82CA81CA80CA7FCA7ECA7DCAB1
:101BE0007CCA7BCA7ACA79CA78CA77CA76CA75CAE1
:101BF00074CA73CA72CA71CA70CA6FCA6ECA6DCA11
:101C00006CCA6BCA6ACA69CA68CA67CA66CA65CA40
:101C100064CA63CA62CA61CA60CA5FCA5ECA5DCA70
:101C20005CCA5BCA5ACA59CA58CA57CA56CA55CAA0
:101C300054CA53CA52CA51CA50CA4FCA4ECA4DCAD0
:101C40004CCA4BCA4ACA49CA48CA47CA46CA45CA00
:101C500044CA43CA42CA41CA40CA3FCA3ECA3DCA30
:101C60003CCA3BCA3ACA39CA38CA37CA36CA35CA60
:101C700034CA33CA32CA31CA30CA2FCA2ECA2DCA90
:101C80002CCA2BCA2ACA29CA28CA27CA26CA25CAC0
:101C900024CA23CA22CA21CA20CA1FCA1ECA1DCAF0
:101CA0001CCA1BCA1ACA19CA18CA17CA16CA15CA20
:101CB00014CA13CA12CA11CA10CA0FCA0ECA0DCA50
:101CC0000CCA0BCA0ACA09CA08CA07CA06CA05CA80
:101CD00004CA03CA02CA01CA00CAFFC9FEC9FDC9B3
:101CE000FCC9FBC9FAC9F9C9F8C9F7C9F6C9F5C9E8
:101CF000F4C9F3C9F2C9F1C9F0C9EFC9EEC9EDC918
:101D0000ECC9EBC9EAC9E9C9E8C9E7C9E6C9E5C947
:101D1000E4C9E3C9E2C9E1C9E0C9DFC9DEC9DDC977
:101D2000DCC9DBC9DAC9D9C9D8C9D7C9D6C9D5C9A7
:101D3000D4C9B5CAB4CAB3CAB2CAB1CAB0CAAFCAA2
:101D4000AECAADCAACCAABCAAACAA9CAA8CAA7CAEF
:101D5000A6CAAFCAAECAADCAACCAABCAAACAA9CAD9
:101D6000A8CAA7CAA6CAA5CAA4CAA3CAA2CAA1CAFF
:101D7000A0CAB3C9B2C9B1C9B0C9AFC9AEC9ADC9AA
:101D8000ACC9ABC9AAC9A9C9A8C95FCA6BCA77CA75
:101D90007ACAA0937E69C0937B69E991E03F08F419
:101DA0009CC9EF70EA52F0E0F14E099497CA95C9C8
:101DB00094C993C992C991C990C992CA8EC98DC953
:101DC0008CC98BC98AC989C988C987C9E0E0E093F1
:101DD0000469209237690895FFFFFFFFFFFFFFFFAF
:101E000026C04DC04FC054C059C060C067C07AC121
:101E1000A0C1D4C1E2C104C20BC219C221C229C2ED
:101E200031C23CC267C081C0BEC00AC11FC13EC131
:101E30003FC140C141C142C143C144C145C146C186
:101E400047C148C149C14AC14BC14CC14DC1E2E083
:101E5000E093110B332423C0E0918868F0918968E6
:101E60003196E0938868F09389680AC0E0918A68A7
:101E7000F0918B683196E0938A68F0938B6800C08C
:101E8000E0918468E395E093846800C0332403C044
:101E9000E3E03E2E00C0E998ED98E1E02EC20E94FA
:101EA000A22800C0ED99F2CF8EF73394E3E025C26B
:101EB000ED99ECCF5EF73394E4E01FC2ED99E6CFE5
:101EC0002EF733940E94E916E5E017C2ED99DECFB4
:101ED000EEF633940E94EE16E6E00FC2ED99D6CFEF
:101EE0002EF4339409F43A94E6E007C2E32DE4318A
:101EF00008F4CCCF30920A69E0910269F09103694D
:101F0000F695E795F695E795F695E795E21DE001DC
:101F1000FBEAEF9F10923A690E01ECE0F9E6CFE0A0
:101F20002192CA95E9F7E3E1E8C10EF0ED99AECF51
:101F3000E0910269F0910369F695E795F695E795CA
:101F4000F695E795E21DE001FBEAEF9F10923B69F1
:101F50000E01EE27519BEFEFF0911B69E0931B6997
:101F6000FE13EE9AE998EA98EF98EB98EC98209295
:101F70000B6920920969E0918568E395E43650F099
:101F8000E0918468F0918668E0938668EF1BE093A7
:101F90008768E0E0E0938568E0911D69E395E09350
:101FA0001D69E7E1AAC1ED9957CFE0910B69EF30C8
:101FB00008F05CCFFCE0EF0FF9E6F21D3192EC5037
:101FC000E0930B69E0910969E325E09309692EF537
:101FD00009F04CCFE3E0E093110BE0E8F8E6A081D4
:101FE000B1811196A083B183A281B381A21DB21DDC
:101FF000A283B383E0910269F0910369F695E795B6
:10200000F695E795F695E795E21DE001FBEAEF9F6F
:1020100010923E690E01E6E170C1E0910269F09113
:102020000369F695E795F695E795F695E795E21D30
:10203000E001FBEAEF9F10923C690E01E5E15DC112
:10204000ED9B0EF409CFE0910269F0910369F695DA
:10205000E795F695E795F695E795E21DE001FBEA31
:10206000EF9F10923D690E01E7E147C1E2E0E09386
:10207000110B2092006920920169ED9B0EF0ECCECD
:10208000E0910269F0910369F695E795F695E79579
:10209000F695E795E21DE001FBEAEF9F10923F699C
:1020A0000E012092026C2CDBE7E027C1E8E11EC0A4
:1020B000E9E121C0EAE11AC0EBE11DC0ECE116C084
:1020C000EDE119C0EEE112C0EFE115C0E0E20EC093
:1020D000E1E211C0E2E20AC0E3E20DC0E4E206C0C0
:1020E000E5E209C0E6E202C0E4E105C0ED99B4CE44
:1020F000330C30F802C11EF030FCAECEFEC030FE14
:10210000ABCEFBC0EEECFAED0E9443130EF0BECE58
:10211000C0913769D0911970EB99D860D3FFC07026
:10212000D0911870EB99D260E0919168EC3F08F083
:10213000DB7FD2FDDE7FEA99D0FFCC7FEC9BD1FF25
:10214000C370EF99CFEFC0933769519BB699A0CE7A
:1021500000C0E99AD0912A70C0910A0BCD23D0918A
:102160002970CD0FCF70C0933869C15BDCE0F001FE
:10217000CD9F00921C0B10921D0B0F01E091026984
:10218000F0910369F695E795F695E795F695E7954D
:10219000E21DE001FBEAEF9F109240690E01E0E0D2
:1021A000E093110BE0913769E0FF06C0C09022690F
:1021B000E89AEDE0E0931301E9E09FC0F091376900
:1021C000E0912369F1FDE0934208E8E6F1E0E09355
:1021D0001C0BF0931D0BEAE090C0D0912C70C091C5
:1021E0000A0BCD23D0912B70CD0FCF70C0933969DE
:1021F000CE5AD0913869CD1BDCE0F001CD9F009222
:102200001C0B10921D0B0F01E0913769E2FF06C015
:10221000C0902469E89AEDE0E0931301EBE06DC013
:10222000E0EFF0E0E0931C0BF0931D0BECE065C0D9
:10223000F0913769E0912569F3FDE0934208E0EE03
:10224000F1E0E0931C0BF0931D0BEDE056C0F09114
:102250003769E0912669F4FDE0934208EEE04DC055
:10226000F0913769E0912769F5FDE0934208EFE0CE
:1022700044C0F0913769E0912869F6FDE093420887
:10228000E0E13BC0F0913769E0912969F7FDE09307
:102290004208E2E0E093110BE1E12FC0E001E091A0
:1022A0000069F0910169F695E795F695E795F69541
:1022B000E795E21DFBEAEF9FE12DEC51F0913969C2
:1022C000EF0FE09341690E01F0913769FC7F91F0C7
:1022D000EAE3F9E6C191C783C191C783C191C7837E
:1022E000C191C783C191C783C191C783C191C7837E
:1022F000C191C78320923769C9CDE0930469AF913A
:10230000BF91CF91DF91EF91EFBFEF91FF911895C2
:102310000895E1E3FAE6AAE8BBECD0E0C1E0D5839A
:10232000C083B183A28326822782208624823A96A4
:10233000D395DA32A1F70A980B980C980D98099862
:102340000898CFC213D0ED91FD91FC83FD91F887E1
:10235000FD91F987A8D2EFB7E0FBD7D3E885E1314B
:1023600008F0E0E0E855F0E0FB4D0994AD81AA0FDC
:10237000AA0FB0E0A83218F4AC57BF480895A8528D
:10238000BF480895C5EDDBE68091AE69882311F062
:10239000C5E9DAE6CF93DF930E94372CDF91CF9126
:1023A0002A97D0DF8E819F8196FB9827907409F041
:1023B000D1D088818150E1F008F088838D81882315
:1023C00049F703D057D265D28CC2E091AE69E15093
:1023D00070F090E00AF497E0CFEDDBE680E20E9437
:1023E0003712A097E03218F4CE0F97E09883089543
:1023F000F981EA8181918C3008F080E090E0895F7A
:102400009D4D8F939F930895F983EA83D7CF0BC097
:102410000DC011C02CC036C03FC042C048C055C01E
:102420005DC063C069C00B807CD0C8CF019079D0FB
:1024300011901882E9CF0E94CB229F938F938191B4
:10244000982F92958F709F70092E081A03941F90F1
:10245000109C180E65D08191982F92958F709F7067
:10246000092E081A1F90109C180E1882CDCF0E94BA
:10247000CB2201909191091A0394182E109C190EE9
:102480004FD0B8CF0E94CB2201909191091A182EFB
:10249000109C190E1882B8CF91918191FC01AACF9E
:1024A000919181910F01FC018D810995A3CF0E942B
:1024B000CB2201909191981708F4A6CF0394102C89
:1024C000100C100CE119F20995CFE89410800B80E4
:1024D000101460F021F43196319696CF68941190E3
:1024E0000B800114C8F7039415C0689411900B80F9
:1024F000101490F70A940EC00E94CB220190919183
:10250000091A0394182E109C190E0B80101408F44D
:1025100007D070CF06D0119018820EF475CF4ECF31
:10252000012C0B82A5EDBBE61D80A10DB21D0C9206
:102530000895FCECE4EE03C0FDECEEE000C08C81FD
:10254000853108F080E0880FE80FF21D91918191AC
:10255000FC0108958E8186F98E839BEC8CE816F43D
:102560009BEC80E999838A8391E09883089513D046
:102570008F77089510C00FD009F4917008950BD093
:1025800009F49370089507D009F49770089503D063
:1025900009F49F70089580911A0B90910A0B892776
:1025A0000895E5EDFBE6D0911A6ADF70D395D4FD6E
:1025B000DA95C091A769C211D06148D449F4C1919C
:1025C000CD17C091010ACB7F08F0C460C093010A07
:1025D0003DD449F4C191CD17C091010ACF7E08F0D6
:1025E000C061C093010A32D449F4C191CD17C091A2
:1025F000010ACF7D08F0C062C093010A27D449F4D4
:10260000C191CD17C091010ACF7B08F0C064C0937F
:10261000010A1CD449F4C191CD17C091010ACD7FA4
:1026200008F0C260C093010A11D449F4C191CD17DA
:10263000C091010ACE7F08F0C160C093010A06D4A0
:1026400031F4C191CD1708F00E9A08F40E98FED31C
:1026500031F4C191CD1708F00F9A08F40F98F6D312
:1026600031F4C191CD1708F04A9A08F44A98EED394
:1026700031F4C191CD1708F04B9A08F44B98A09112
:102680006009A0FF01C085C0A0E8B4E78091D769C8
:10269000C191C295C89F1D92C191C295C89F1D92BC
:1026A000C191C295C89F1D92C191C295C89F1D92AC
:1026B000C191C295C89F1D92C191C295C89F1D929C
:1026C000C191C295C89F1D92C191C295C89F1D928C
:1026D000C191C295C89F1D92C191C295C89F1D927C
:1026E000C191C295C89F1D92C191C295C89F1D926C
:1026F000C191C295C89F1D92C191C295C89F1D925C
:10270000C191C295C89F1D92C191C295C89F1D924B
:10271000C191C295C89F1D92C191C295C89F1D923B
:10272000C191C295C89F1D92C191C295C89F1D922B
:10273000C191C295C89F1D92C191C295C89F1D921B
:10274000C191C295C89F1D92C191C295C89F1D920B
:10275000C191C295C89F1D92C191C295C89F1D92FB
:10276000C191C295C89F1D92C191C295C89F1D92EB
:10277000C191C295C89F1D92C191C295C89F1D92DB
:10278000C191C295C89F1D92C191C295C89F1D92CB
:102790000895D0916009D0FF0895D0911A6ADF7032
:1027A000DF3009F4DEE0B096C291DC17881FC291D9
:1027B000DC17881FC291DC17881FC291DC17881FA5
:1027C000C291DC17881FC291DC17881FC291DC17E9
:1027D000881FC291DC17881FD3D2C291DC17881FD3
:1027E000C291DC17881FC291DC17881FC291DC17C9
:1027F000881FC291DC17881FC291DC17881FC29105
:10280000DC17881FC291DC17881FBAD2C291DC176F
:10281000881FC291DC17881FC291DC17881FC291E4
:10282000DC17881FC291DC17881FC291DC17881F34
:10283000C291DC17881FC291DC17881FA1D2C291F8
:10284000DC17881FC291DC17881FC291DC17881F14
:10285000C291DC17881FC291DC17881FC291DC1758
:10286000881FC291DC17881FC291DC17881F88D28D
:1028700091D20895ACE6B0E706D08093AB6903D05F
:102880008093AA69089581E0EE910DD0881FE0F74A
:102890000895ACE6B0E780E8ED9105D08795E0F7C4
:1028A0008093AC690895E7FBEF77E53410F0EE27ED
:1028B00012C0EF771E2EE770F0E0E652F74300807B
:1028C000169416941694E2E5F8E6E10DF21DE08107
:1028D0000EF4E025E021E19508950102040810209E
:1028E0004080ECE7F0E7A8E9BAEDDAE08191CD911C
:1028F000C2118883E238D1F708951FB6F095F89495
:102900000090A8690F220E2A0092A8691FBE0895A0
:102910001FB6F095F8940090A9690F220E2A009234
:10292000A9691FBE0895E091A769EE230895E0917B
:102930003A70E0938506FFB7F894E091A769E21139
:10294000EA95E093A769FFBFE1E0E093860608956A
:1029500012C00FC01AC022C02AC032C03AC040C044
:1029600048C050C07AC07BC085C063C06CC058C02E
:1029700051C00EF4F3C007C136F483FD04C182FDDB
:10298000EDC080FF90FFFFC0E9C036F483FDFBC0BF
:1029900082FDE4C080FF90FFF6C0E0C036F483FD06
:1029A000F2C082FDDBC081FF90FDEDC0D7C036F4E0
:1029B00083FDD4C082FF80FDE6C090FDE4C0CEC0A0
:1029C00036F483FDCBC082FF81FDDDC090FFDBC00C
:1029D000C5C0EEF783FF91FDC7C082FFC5C0B5C07B
:1029E00036F483FF91FDC0C082FFBEC090FFCBC014
:1029F000ACC0EEF783FF91FDB7C082FFB5C090FD7C
:102A0000C2C0A3C0EEF783FF82FFAEC091FD089560
:102A10009CD0B0C01EF482FD089583FDB4C09EC05A
:102A20007EF782FD0895B3E0B823B21183FDABC0F9
:102A300095C036F782FD0895B3E0B823B21183FD47
:102A4000A2C089D09DC0E6F682FD0895B3E0B82308
:102A5000B21183FD98C076D08DC001D00BC06894B0
:102A6000E0E1B4FD12C0B6FD15C081FD089580FF00
:102A700011C00BC0E894E0E2B5FD07C0B7FD11C07E
:102A800080FD089581FF0DC000C06091B570709108
:102A9000B67013C0E0E4B6FD0BC080FF90FF089550
:102AA00007C0E0E8B7FD04C081FF90FD089500C0B5
:102AB0006091B3707091B47000C0B0FD0BC0B3FFF3
:102AC000089583FF91FD0895FE2F0E9496250E9490
:102AD000FA1127C0B1FD0FC00E94F81109F491FD51
:102AE00008953CD062957295EFB7E894E6FF68943C
:102AF0000E94FA1116C00E94F81111F491FFB3FD63
:102B0000089541D00E94FA1109C08091AA6990915C
:102B1000A869A985B091AD69B3F90895E0E0FFE334
:102B200005C0E091AD690894EE1FF3E0EF23B0918A
:102B3000AD69F095BF23BE2BE093AD69089517DD15
:102B400069F0089517DD51F0089515DD39F0089505
:102B500016DD21F0089517DD09F00895E0E4EF8314
:102B6000089505DD81F0089505DD69F0089503DD20
:102B700051F0089504DD39F0089505DD21F0089540
:102B800006DD09F008952F820895000006229C00BA
:102B90000622990001000000010F01000100000061
:102BA000010201010401080F0100010401080001F4
:102BB000000002008102108102FF210703A002FE33
:102BC000810701FF00000200F10210F102FF21075E
:102BD00003A000000101140211F102FF210702808D
:102BE0000000080101043010010F01000801010478
:102BF0003010010408080F01000001000000090F57
:102C0000010450200702FF00010000000804010039
:102C10000800010001080102531108010104060126
:102C20000704C004C040090F010702FF0000010FA4
:102C300001010101045020046010090F010702FF87
:102C400000000B03010480400A00010702FF00009E
:102C5000080401010F030104010801010101080733
:102C600005FF000008000100010F0A01000A070229
:102C7000FF000200F102FFB90200B90702FF0000E5
:102C800001000100010F010100130702FF00010F05
:102C900001010001010F010100110704FF00010FF4
:102CA00001010001010F01010001010F0101000FED
:102CB0000706FF0001000100010001080F010801E3
:102CC000010702FF0000010011080F0108010107C0
:102CD00002FF000008000100010F140100000000C5
:102CE00001000000CB94CB98CBA0CBB2CBC6CBD409
:102CF000CBE2CBECCBFECC0CCC14CC2ECC50CC68A5
:102D0000CC72CC84CC8ECC9ECCB8CCC6CCD8CB9458
:102D1000CB9CCBAACBFACBFACBFACBFACBFACC082A
:102D2000CC10CC42CC42CC64CC80CC80CCB4CCB4E3
:102D3000CCB4CCD4CCD4CCE0E0918171E0FD08954A
:102D40002092260820925004409A4B98439A4A9821
:102D5000429A4898409AA4E0A0936109A1E3A09305
:102D600060091ED005C00BD00AD009D008D012C00F
:102D700004D003D002D001D00DC080E001C08FEF9D
:102D80008095809364098091630987FFFCCF8091CF
:102D9000640908954B9884E08A95F1F74B9A089559
:102DA00080916309809164090895E0918171E0FF49
:102DB0000895209260090895E0912608E6FF08959D
:102DC000E0E0F4E75F01E2E00093060BE093050B1F
:102DD0000895E0912608E6FF0895E0E8F4E7A0E012
:102DE000B4E78191C4E09FEE87FD9C7F86FD9F78CC
:102DF0009D93880F880FCA95B1F7A7FFF2CF08956A
:102E00009FEE80E8C0E0D4E70C9437121CC04F9AC4
:102E100008954F9808956F9A08956F980895E091D6
:102E2000AB69F0918069F030F0915970F0FF09F0D2
:102E300006C0E064E068E093AB69E9DFECCFEF7BCC
:102E4000EF77E093AB69E5DFE8CF0895C091AE700E
:102E5000CC230895FBDF61F0E091D969E211089578
:102E6000E091DA69E2110895EFEFE093DA69226008
:102E70000895F091AC7002C0F091AD70FE23F21194
:102E80000895FF91FF91089516D01DD00AD023D048
:102E90002BD034D03DD046D04FD058D061D06AD05E
:102EA000F3CFE4E0E6DF97D0E3E275D0E0910A6C7F
:102EB000E7FDEFE770C0E1E0DCDF8DD0E4E26BD04E
:102EC000E091046C68C0E2E0D4DF85D0E5E263D035
:102ED000E091516860C0E0E8CCDF7DD0E0E65BD0F7
:102EE000E0915268EF7157C0E1E0C6DF74D0E1E6CF
:102EF00052D0E0915268F091536845C0E2E0BCDFE7
:102F00006AD0E2E648D0E0915368F09154683BC043
:102F1000E4E0B2DF60D0E3E63ED0E0915468F091A7
:102F2000556831C0E8E0A8DF56D0E4E634D0E0913F
:102F30005568F091566827C0E0E19EDF4CD0E5E689
:102F40002AD0E0915668F09157681DC0E0E294DF06
:102F500042D0E6E620D0E0915768F091586813C05F
:102F6000E0E48ADF38D0E7E616D0E0915868F091C7
:102F7000596809C0E0E880DF2ED0E8E60CD0E09187
:102F80005968F0E000C0E07EE295E695FF0FFF0F84
:102F9000FF0FEF2B00C0E093DB6909D008D007D00A
:102FA00006D005D004D003D002D0AA9A0895E091AB
:102FB000DB69E695E093DB69AB9A08F4AA9A08F01E
:102FC000AA9802D0AB9800C0E091AE70F0E0FC96F9
:102FD0003197F1F70895EFEFE093D96984E190E03C
:102FE0000E94762C2092D9690E94862C2092DA6960
:102FF00008952092AF692092B069089504D0FE2F01
:10300000E0E2EF1B0895E091B069F091AF69EF1B2A
:1030100008F4E1950895E091B069F091AF69889462
:10302000EF1308940895C091B069CF54D0E0D64909
:10303000B993E993F993A993C15BC03208F0CC2707
:10304000C093B0690895C091AF69CF54D0E0D6491C
:10305000B991E991F991A991C15BC03208F0CC27EF
:10306000C093AF69089590E3889410C0A881A82305
:10307000A81711F492E106C0A881A823A817B1F3FC
:1030800093E100C0A881A817A9F00894A0910210AC
:10309000A1FDFCCFA0FDFACFADE9A4BF9093001035
:1030A00008F48993A4BFA1E0A0930010A09102109E
:1030B000A1FDFCCF089599D08AD009D00E949D131C
:1030C000E0939F69F093A06920929A69089582E045
:1030D00010904E6800904F68F0914C68E0914D68F8
:1030E000EF01CD2BD9F4E0911070F4E6EF9FF0E002
:1030F000E211F0ECE0910F70EF770E0E121C1F2A18
:1031000081E0E0910070EF77F0E0C0911970C5FFA9
:1031100005C0F0910D70E0910E70F06CE0934A697B
:10312000F0934B6900924C6910924D690128E0E0E0
:10313000F0E20210EF2FE1DB00C0CEEFD5E180938B
:1031400090689ACF19D1E0919A6920929A69EE30ED
:1031500020F4F0E0E355F74D099408950CC00DC03C
:103160000EC00FC010C0089508950FC01EC027C024
:1031700010C013C016C00C94FB110C94FD110C94DC
:1031800001120C940B120C940612F8946CDF0C9440
:10319000FB11A0E0B3E48CE15CC0A0E0B8E988E2F8
:1031A00058C0A2E0B0E080E854C0F89481E0C5DFE8
:1031B000E6EBF1ED3DC00001111213141D00E4EC2B
:1031C000F1ED36C000020506090A37383900D4D0BF
:1031D00004D0D6D002D0D8D000C0B0E078D0B3951B
:1031E000A0919D69BA17D1F70895E091FF15E030DD
:1031F00069F0EF3F09F037DFBFD009D0C1D007D069
:10320000C3D005D0CFEFD5E180E036DF0895B0E040
:10321000A89506D0B395A0919D69BA17D1F70895E6
:103220003AD028F4D0919B69CE2F8A2F1FCF0895D2
:10323000F894A191EF93FF9395D0A895FF91EF910A
:10324000B191B15010F40C94FB11EF93FF93E8DFB0
:10325000F5CFF8948F93BF9385D0A895BF918F91A8
:10326000B3958A9509F40C94FB118F93BF93D8DF23
:10327000F5CFE0919B69E431EEE0EB0751F0E0918E
:103280000B70F0910C70EF1721F0EF91EF91989483
:103290000895189408954AD033960994F0DF46D0E3
:1032A0003196099426F0E5DF41D032960994E1DFAA
:1032B000AF93F4DFEF91E3FB0E940D12E095AE2394
:1032C000E0950EF0EE27AE2B31D0329609942ED039
:1032D00030960994A0E027C0EA81A98121C0EA8143
:1032E000F0919B69A081F0919C69A08319C0EA814B
:1032F000F0919C69A08114C0EA81F0919C69B09121
:103300009B6991DE0DC0E981FA81A08109C0E98144
:10331000FA81A08305C00F92C895A02D0F9000C020
:10332000189408940895189488940895CB2FD091F8
:103330009D69CD1778F4D0E0CC0FDD1FCC0FDD1FD9
:10334000F0919E69DF0FE881E43149F0F0E0E55744
:10335000F24D0895C0E0D0EEEBE8FDE20895E9817A
:10336000FA810895B0E0B03099F4A03029F0A1308E
:1033700039F0A23049F00CC0A4EDBCEDF0E00BC078
:10338000AEE7B0EEF0E007C0A4E8B2EEF1E003C0B3
:10339000A0E0BCEDF0E0A0939D69B0939E69FC5E57
:1033A000F0939B69F45AF0939C69089503C007C099
:1033B00009C012C0A0910014A0930070B1CFA091D9
:1033C0000070AECFAA2339F032F0E0E0F0E7B09120
:1033D0009B6929DEA5CF7ECFE0E0A3E0A1CF7ACF25
:1033E00002C003C077CFADE09BCF0E94F61119F465
:1033F000A0939A6995CF6ECF03C007C009C015C0CE
:10340000A0910B14A0930B708BCFA0910B7088CF61
:10341000AF3F11F4A0910C70A03F30F4EBE0F0E767
:10342000B0919B6900DE7CCF55CFEBE0A1E078CF77
:1034300003C007C009C011C0A0910C14A0930C7068
:103440006FCFA0910C706CCFA03F30F4ECE0F0E7B0
:10345000B0919B69E8DD64CF3DCFECE0A1E060CFA7
:1034600039CF06C037CF36CF35CF05C033CF32CFB7
:10347000E1E0F1E950CFE0E0F1E94DCFE4E5FCE631
:1034800052C2D7EC49C24AD2F9D148D2E0910210D7
:10349000E1FDFACFC0DDC0F7D6DDC081CA17B1F3B8
:1034A000A083FB2FCDE9D3E1C4BFD0930010A0834C
:1034B000D1E0C4BFD0930010D1E0D0930410D093DA
:1034C0000310E2CF0C94442780E390E00E94762C16
:1034D0000E94C221CCD10E94E926C9D10E94DC26DB
:1034E000F3CF1CD20E9427140E942A27C7D1F9CFFC
:1034F0006B98639AE4E5FCE61BD26B9A86E090E059
:103500000E94762C6B98F6CF88EE93E00E94762C82
:10351000A89560D20E94E912FBCF0C94D1220C94A2
:10352000DB117DCCE0919168E7FF05C0EC3F30F402
:10353000E0910A0BEF73EA95E09391680895F1E04A
:10354000EF2F80912069823308F4E0E0E1D9E09127
:103550002C6CF0918071F07FEF1708F0EF2FF09155
:103560008071F295F07FEF1708F4EF2FF091D76993
:10357000FE1719F008F0F250F395F093D769F6951D
:10358000F03108F4F0E1E0E8E0930C0BF0930D0B60
:103590000C9417140C941A14FAEDEAE2D9E6CCED67
:1035A00082E10E94211214D037D03FD047D04FD0B3
:1035B00057D05FD067D06FD011272227D9E0C9E953
:1035C000C093186AD093196A089578940C94EF2ADE
:1035D000ECEDF9E6E093156AF093166A08950E94FF
:1035E000412A20921C6A20921D6A20921E6A1D7F29
:1035F000E0911C6AF0911D6AC0911E6A3196C21D4D
:1036000011FDEFCF2223D1F3E0931C6AF0931D6AE2
:10361000C0931E6A33D1ECCFE3E1FBE2E093A66CEA
:10362000F093A56C08950C94432AECE1FBE2E0933F
:10363000CA6CF093C96C08950C94622AE5E2FBE22F
:10364000E093EE6CF093ED6C08950C94642AEEE236
:10365000FBE2E093F06CF093EF6C0895A3E924C0D3
:10366000E7E3FBE2E093F26CF093F16C0895A4E9D8
:103670001BC0E0E4FBE2E093166DF093156D089536
:103680000C94712AE9E4FBE2E0933A6DF093396D12
:1036900008950C94782AE2E5FBE2E0935E6DF093E6
:1036A0005D6D08950C94842A0C94CF1310FD82C094
:1036B000F093276AFFB7F093266A1160E093286AB7
:1036C000D093296AC0932A6AB0932B6AA0932C6A7C
:1036D00090932D6A80932E6A10922F6A0092306A1E
:1036E000C0911A6AC395C0931A6A09F41860CF7022
:1036F00009F41460C0FD14C01061C091186AD09123
:10370000196AC15015F41062C97F10F41064C979A8
:10371000D04010F41068D970C093186AD093196A19
:1037200017FD58D079D00E948D2A14FD0E948F2A4F
:1037300015FD0E94912A16FD0E94922A13FD0E94F7
:103740009F2A17FD0E94CA2A14FF1BC0D9E6C2EFA8
:10375000A1E0E881F981319788F071F42A2BE883A0
:10376000F983EA81FB81FE2B49F0FB810180A09562
:103770000A22A095018202C0E883F9832496AA0F49
:1037800041F70090306A10902F6A80912E6A9091D4
:103790002D6AA0912C6AB0912B6AC0912A6AD091AF
:1037A000296AE091286A1270F091266AFFBFF091B1
:1037B000276A0895F894E1E0F1E00E94222DFFEFDE
:1037C0003197F1F7E0E0F1E00E94222DF0E431972B
:1037D000F1F7F0CFE0911D6AF0911E6AEE0FFF1F26
:1037E000EBE8FE9F000C111CE4E6E119E0931B6A74
:1037F0001260C091206AD091216AC093226AD0934E
:10380000236AD695C795D695C795C0931F6A20920F
:10381000216A2092206A0895E0911A6AEF70E0937D
:10382000176AEE0FF0E0E95EF34D099408950C94E9
:10383000CE110C94CF110C94D7110C94162C0C941F
:10384000162C0C94162C0C94162C0C94162C0C94F0
:10385000162C0C94162C0C94162C0C94162C0C94E0
:10386000162C0C94162C0C94162C0C94162CF091EF
:10387000126AFF0F11F02F1708F40895E091206AE3
:10388000F091216A3196E093206AF093216AC09109
:10389000156AD091166AEDB7FEB7E993F883E0E2B6
:1038A000F22FC0E8FF0F30F019F0C695E450D1F7C1
:1038B000CC27EE27C093126AE093146AE695E09352
:1038C000136AD9E6CCEDCE0FD21DC093156AD09302
:1038D000166AE991F881CFB7F894EDBFFEBFCFBF6C
:1038E000089591E0899FC00101C09927CEEED9E6E5
:1038F000B091146ACB0FD21DBFB7F8948883998317
:10390000D091126AD0952D23BFBFB8CF07D0B6CFC4
:1039100003D0B4CFD091126A2D2B0895D091126AA2
:10392000D0952D230895208221820895689401C0A6
:10393000E894D091126ABFB7F894C081CC2321F0EB
:10394000CE7FC083BFBF0895C181CD2BC183BFBFD0
:103950000EF0DCCFCBCFBFB7F894C191D081DD237F
:1039600021F4C160C293BFBF089520822292BFBFDD
:103970000DC0BFB7F894D081D260D193D081DD2340
:1039800011F4BFBF08952082BFBF00C0EEEEF9E67C
:10399000CD2F3496CC0F41F0E0F7F894219221928C
:1039A00021922192BFBFF6CFB7CF20820895BFB733
:1039B000F894A081AE7FA083BFBF0895F8DFB8CF91
:1039C000E1E0F1E00E94222D0895E0E0F1E00E94A4
:1039D000222D0895C6E5DCE6E6E1FAED0C2E9FEF18
:1039E000A191B191BF3F81F011968FEF83951D900A
:1039F0001120E1F3821183958993981788F382113E
:103A0000982F82110C2EECCF9093246AC02DC855AC
:103A1000C093256A08955F6C836CA76CCB6CEF6CC8
:103A2000F16CF36C176D3B6DFFFF826CA46CC86C7E
:103A3000EC6CEE6CF06C146D386D5C6D0895E2E02A
:103A4000F2E000C0EF23F0950090FF6B0F22E02919
:103A500006C0E0E004C0EFEF02C0E1E000C0E09388
:103A6000FF6B00C0E091FF6B0C94A313EF23F09564
:103A70000090006C0F22E02908C0E0E006C0E5E5F8
:103A800004C0EFEF02C0E0E000C0E093006C00C0B3
:103A9000E091006C0C94A1132C292B2D2A283103C2
:103AA0000000010102310080256C0001004040311E
:103AB000008000000002310300000102013100809B
:103AC000276C000100404031008000000002110B13
:103AD00000000142401100812F6C000100404011A4
:103AE000008000000002110300000104401100806A
:103AF0002B6C000100404011008000000002110307
:103B00000000010540110085296C000100404011B2
:103B1000008000000002DECBDDCBDCCBDBCBDACBE0
:103B2000DBCBD8CBD7CBDBCBE2CBE6CBD5CBD2CB69
:103B3000EACBD0CBCFCBCECBE6CBE9CBCBCBCACB72
:103B4000C9CBC8CBC7CBFFFFFFFFFFFFFFFFFFFFC6
:103C000014D6297F0801017F080802FF080803FF76
:103C100008FF04FF088005FF0498000014EF290046
:103C200008000603086407FF081008FF04040000EA
:103C30000800090008000A0014FC29FF14182AFFD4
:103C400008C30DFF08E80EFF08000FFF080010FF73
:103C5000080011FF080012FF0800130008001400FC
:103C60000000000000000000080017FF089E181167
:103C7000080A1911101A7000040000FF04FF00FF69
:103C80000000000000000000000000000000000034
:103C90000000000000000000000000000000000024
:103CA0000000000000000000000000000000000014
:103CB00000000000000000000804290F08002A0F7F
:103CC00008042B0F08002C0F08E72DFF080E2EFF0D
:103CD00000000000080030070800310F088032FFA4
:103CE00000000000086434FF084135FF08B436FFC7
:103CF000088037FF088038FF088039FF08283AFF1E
:103D000008023B0008A03CFF08033D7F08073E7FF8
:103D1000080C3F7F0810407F0815417F0819427F3B
:103D2000081E437F0822447F0827457F082B467FD3
:103D30000830477F0834487F0839497F083D4A7F6B
:103D400008424B7F08464C7F084B4D7F084F4E7F03
:103D500008544F7F0858507F085D517F0861527F9B
:103D60000866537F086A547F086F557F0873567F33
:103D70000878577F087E587F080059FF0406000026
:103D80000C4068000C4168000C4268000C4368005D
:103D90000C4468000C4568000C4668000C4768003D
:103DA00008005AFF08005BFF04010000040900003E
:103DB0000C01A1000C0091000C0191000C0091007D
:103DC0000C1180000C10800014302AFF14342AFFDC
:103DD0000C1717000CFF15000C90680008015CFF21
:103DE00008025DFF08035EFF08045FFF080560FF2F
:103DF000080661FF080762FF08FF63FF08FF64FF12
:103E000008FF65FF08FF66FF08FF67FF08FF68FF00
:103E100008FF69FF08086AFF08096BFF083D6CFF8F
:103E2000083E6DFF083F6EFF08406FFF084170FFBE
:103E3000084271FF084372FF084473FF08FF74FFD4
:103E400008FF75FF08FF76FF08FF77FF08FF78FF80
:103E500008FF79FF08FF7AFF08FF7BFF08FF7CFF60
:103E600008FF7DFF08FF7EFF08FF7FFF08FF80FF40
:103E700008FF81FF0000820000008300080084FF2B
:103E8000080185FF080186FF08FF87FF080088FFFB
:103E9000080189FF08018AFF08FF8BFF08018CFFDA
:103EA00008018DFF08018EFF08FF8FFF080290FFB9
:103EB000080191FF080192FF08FF93FF080394FF98
:103EC000080195FF080196FF08FF97FF080498FF77
:103ED000080199FF08019AFF08FF9BFF08059CFF56
:103EE00008019DFF08019EFF08FF9FFF0806A0FF35
:103EF0000801A1FF0801A2FF08FFA3FF0807A4FF14
:103F00000801A5FF0801A6FF08FFA7FF0808A8FFF2
:103F10000801A9FF0801AAFF08FFABFF0887ACFF53
:103F20000803ADFF0800AEFF0820AFFF08E0B0FFB8
:103F30000880B1FF0880B2FF0825B3FF083FB4FF37
:103F40000853B5FF0833B6FF101C6C000455000081
:10400000040900000401000000000000000000009E
:104010000C4368000C4268000C4168000C406800CA
:104020000C4768000C4668000C4568000C446800AA
:104030000C0875000C0975000C0A75000C0B750056
:104040000C0C75000C0D75000C0E75000C0F750036
:104050000C1075000C1175000C1275000C13750016
:104060000C1475000C1575000C1675000C177500F6
:104070000C1875000C1975000C1A75000C1B7500D6
:104080000C1C75000C1D75000C1E75000C1F7500B6
:104090000C2075000C2175000C2275000C23750096
:1040A0000C2475000C2575000C2675000C27750076
:1040B0000C2875000C2975000C2A75000C2B750056
:1040C0000C2C75000C2D75000C2E75000C2F750036
:1040D0000C3075000C3175000C3275000C33750016
:1040E0000C3475000C3575000C3675000C397500F4
:1040F0000C3A75000C1A75000C1B75000C0075004D
:104100000C0075000000000000000000000000002E
:104110000000000000000000000000000C146C0013
:104120000C156C000C166C000C176C000C1C6C0051
:104130000C1D6C000C8068000C8168000C8268000B
:104140000C8368000C8868000C8968000C8A680081
:104150000C8B68000C8C68000C8D68000C426900A8
:104160000C4369000C4469000C4569000C46690069
:104170000C4769000C4869000C4969000C0A690089
:104180000C1B69000C1C69000C1E69000C346C00CF
:104190000C356C000C066C000C0268000C03680007
:1041A0000C0468000C0568000C0068000C01680035
:1041B0000CFD15000C566C000C576C000C586C0074
:1041C0000C596C000C5A6C000C5B6C000C5C6C00A5
:1041D0000C5D6C000C5E6C000C2168000C2068000B
:1041E0000C2268000C4A69000C4B69000C4C6900F9
:1041F0000C4D690004550000FFFFFFFFFFFFFFFFAC
:10420000080000FF080301FF080102FF08FF03FF89
:10421000080004FF080305FF080106FF08FF07FF69
:10422000080008FF080309FF08010AFF08FF0BFF49
:1042300008000CFF08030DFF08010EFF08FF0FFF29
:10424000080010FF080311FF080112FF08FF13FF09
:10425000080014FF080315FF080116FF08FF17FFE9
:10426000080018FF080319FF08011AFF08FF1BFFC9
:1042700008001CFF08031DFF08011EFF08FF1FFFA9
:10428000080020FF080321FF080122FF08FF23FF89
:10429000080024FF080325FF080126FF08FF27FF69
:1042A000080028FF080329FF08012AFF08FF2BFF49
:1042B00008002CFF08032DFF08012EFF08FF2FFF29
:1042C000080030FF080331FF080132FF08FF33FF09
:1042D000080034FF080335FF080136FF08FF37FFE9
:1042E000080038FF080339FF08013AFF08FF3BFFC9
:1042F00008003CFF08033DFF08013EFF08FF3FFFA9
:10430000080040FF080341FF080142FF08FF43FF88
:10431000080044FF080345FF080146FF08FF47FF68
:10432000080048FF080349FF08014AFF08FF4BFF48
:1043300008004CFF08034DFF08014EFF08FF4FFF28
:10434000080050FF080351FF080152FF08FF53FF08
:10435000080054FF080355FF080156FF08FF57FFE8
:10436000080058FF080359FF08015AFF08FF5BFFC8
:1043700008005CFF08035DFF08015EFF08FF5FFFA8
:10438000080060FF080361FF080162FF08FF63FF88
:10439000080064FF080365FF080166FF08FF67FF68
:1043A000080068FF080369FF08016AFF08FF6BFF48
:1043B00008006CFF08036DFF08016EFF08FF6FFF28
:1043C000080070FF080371FF080172FF08FF73FF08
:1043D000080074FF080375FF080176FF08FF77FFE8
:1043E000080078FF080379FF08017AFF08FF7BFFC8
:1043F00008007CFF08037DFF08017EFF08FF7FFFA8
:1044000008FF80FF10AE69FF080181FF045500001E
:00000001FF
; 
; *** EOF 
